:10000000F85F002011040000196600001966000066
:1000100019660000196600001966000019660000E4
:1000200019660000196600001966000019660000D4
:1000300019660000196600001966000019660000C4
:1000400019660000196600001966000019660000B4
:10040000FFFFFFFFFFFFFFFFFFFFFFFFFEFFFFFFFD
:1004100062B608F025F9FEE730B50024002004009C
:10042000E4B23D2C22DA5020E4B205216143624A55
:100430005054E4B2052060435F490818447002201C
:10044000E4B2052161435C4A511888700020E4B28F
:1004500005216143584A5118C870A020E4B2052113
:100460006143554A51180871641CD9E70020040003
:10047000E4B23C2C0DDAE4B25048005DA0214843C0
:100480004F490818E4B2042161434E4A5050641C9D
:10049000EEE750204C49087050204C49087050201D
:1004A0004949087078204A49087002204949087073
:1004B000502549480078022103F05AF9281A474983
:1004C000087045480078022103F052F95030444941
:1004D000087000204349087030BD78B50020002125
:1004E0006A46414B1C8814800022404B1B68344CE8
:1004F00000252800C0B278285CDAC0B2A0254543A8
:100500002F4E75192C0000252900C9B214294FDA85
:100510005B1C1D782A00D2B21500ED116E46755D88
:100520002570641CD2B21500AD112E00F607F60F2F
:100530006D46AD5D2570641CD2B215006D112E00A4
:10054000F607F60F6D46AD5D2570641CD2B215003E
:100550002D112E00F607F60F6D46AD5D2570641C5B
:10056000D2B21500ED102E00F607F60F6D46AD5D08
:100570002570641CD2B21500AD102E00F607F60FE0
:100580006D46AD5D2570641CD2B215006D102E0055
:10059000F607F60F6D46AD5D2570641CD2B21500EE
:1005A000ED07ED0F6E46755D2570641C491CACE7C8
:1005B000401C9FE771BD0000603E002004E5FF1F66
:1005C00060F3FF1F14E4FF1F8C3F0020873F0020D3
:1005D0008D3F00208E3F0020B7E5FF1F8F3F00209A
:1005E000903F00207D4000204648000010E4FF1F9F
:1005F000F0B5FFB0D4B05020039014200790012034
:1006000004901020070000200500A02D07DA01202B
:10061000C0430421694333AA50506D1CF5E75020B4
:100620000799401A050007985030A84232DBB148BC
:10063000C05DA0214843B0490818405D002827D17B
:100640002C00002C10D4AB48C05DA0214843AA491F
:100650000818005D002807D10020C0430421614331
:1006600033AA5050641EECE72C009F2C10DAA148EE
:10067000C05DA0214843A0490818005D002807D1AB
:100680000020C0430421614333AA5050641CECE7AE
:100690006D1DC8E700200500A02D1EDA0420684368
:1006A00033A908580021C943884214D13C00002CCA
:1006B00011D49048005DA02148438F490818405D3F
:1006C000012806D12000401C0421694333AA505060
:1006D00001E0641EEBE76D1CDEE701200600002050
:1006E00005009F2D12DA0020C043464330006843C6
:1006F000022103F03DF85030029002980421484353
:1007000033A90858002801D56D1CEAE70298059026
:100710000120060000200500A02D20DA0020C043A3
:10072000464330006843022103F022F85030029023
:1007300002980421484333A9085800280DD4029890
:100740000421484333A9085805990422514333AA88
:100750005158884201DA029805906D1CDCE7059833
:10076000039000206946C871002069468871002006
:100770006946487100206946087100207D4908706B
:1007800000207D4908700A2010A9087008A81421CB
:1007900003F060F83D00049885423BDB03980400B9
:1007A000002C18D45348405DA021484352490818F2
:1007B000005D002804D108A8405D401C08A94855E8
:1007C0004C48405DA02148434B490818005D012872
:1007D00001D0641EE4E703980400A02C18DA454811
:1007E000405DA021484344490818005D002804D119
:1007F00008A8405D401C08A948553E48405DA0211E
:1008000048433D490818005D012801D0641CE4E715
:100810006D1EC0E73D00049885424EDB039804003E
:10082000002C22D4002C05D100200421694322AAE7
:1008300050501AE02F48405DA02148432E49081827
:10084000005D00280FD12B48405DA02148432A4974
:1008500008180019401E0078012804D104206843BC
:1008600022A90C5001E0641EDAE703980400A02CD2
:1008700021DA9F2C05D19F200421694311AA5050F1
:1008800019E01C48405DA02148431B490818005D41
:1008900000280ED11748405DA0214843164908188A
:1008A00000194078012804D10420684311A90C5094
:1008B00001E0641CDBE76D1EADE73D000498854256
:1008C0001CDB0420684322A90858002804D12A48C8
:1008D0000078401C284908700420684311A9085872
:1008E0009F2804D123480078401C224908706D1EBF
:1008F000E4E700BFB8E5FF1F60F3FF1F0020824957
:10090000087000208149087000208149087000208B
:100910008049087000200090002006903D00049857
:10092000854232DBBD4229D0781E854226D0B81ED2
:10093000854223D0F81E854220D008A8405D9F281C
:1009400003DB0120714908701FE008A8407869287E
:100950000BDA08A880786E2807DA08A8C078732810
:1009600003DA08A80079732808DB012067490870BA
:100970000BE000BF8440002085400020009808A9BB
:10098000495D401800906D1EC9E763480068032860
:1009900007D061480068072803D05F48006808282E
:1009A0001DD108A8C019401E007808A9C919891EC0
:1009B0000978401808A9C919C91E0978401808A95A
:1009C000C919091F0978401808A9C919491F0978C8
:1009D000401808A9C919891F09784018069000987D
:1009E0004E49884202DB01204849087006984C496C
:1009F000884202DB01204449087000200F9000204B
:100A00000E9000200D9047480078002853D04648AB
:100A10000078012866D145480078052803DB444862
:100A20000078042807DB4248007805285ADB3F4855
:100A30000078042856DA38480068072852D036482B
:100A4000006808284ED000983A49884216DB38489A
:100A5000007836490978884210D22F480068032868
:100A60000CD001203449087001203449087000205E
:100A70002D4908703821002003F086F800982D4990
:100A800088422FDB2948007829490978884229D2F1
:100A900021480068032825D00020C043264908705B
:100AA00001202649087000201F49087037210020C6
:100AB00003F06AF816E01D480078052803DB1C489F
:100AC0000078042807DB1A48007805280ADB174855
:100AD0000078042806DA00981049884202DB0120D9
:100AE000B94908700C480068072803D00A48006814
:100AF000082802D103F0A0F801E003F0A6F80348AB
:100B000000787FB054B0F0BD7E4000207F400020D0
:100B10008140002080400020A83F00207206000095
:100B20008A02000077400020864000208540002097
:100B3000844000203A0700008740002082400020C7
:100B4000F7B5D4B014206946888119206946C88158
:100B50003B2004003B20694608810020694648810B
:100B60000020694688800020060036B2A02E08DAF0
:100B70000120C04336B20221714304AA5052761CB0
:100B8000F3E75020039909B2401A0600039800B217
:100B9000503036B2B0423CDB36B224B28B48005DF6
:100BA000A02148438A490818805D00282FD13500CC
:100BB0002DB2002D13D42DB224B28448005DA021A3
:100BC000484383490818405D002808D10020C043ED
:100BD0002DB20221694304AA50526D1EE8E7350088
:100BE0002DB29F2D13DA2DB224B27848005DA021DA
:100BF000484377490818405D002808D10020C043C9
:100C00002DB20221694304AA50526D1CE8E7761DFB
:100C1000BCE70020060036B2A02E23DA36B202204E
:100C2000704304A9085E0021C943884218D12500F9
:100C30002DB2002D14D436B22DB26448405DA021EF
:100C4000484363490818805D012807D12800401CEB
:100C500036B20221714304AA505201E06D1EE7E74B
:100C6000761CD8E7012007000020060036B29F2E30
:100C700016DA0020C04347433FB2380036B2704313
:100C8000022102F075FD503069464880009800143A
:100C90000221414304A8405E002801D5761CE5E707
:100CA0000098001469460880009800B20221414370
:100CB00004A8405E002838D4012007000020060068
:100CC00036B2A02E28DA0020C04347433FB2380096
:100CD00036B27043022102F04BFD50306946488025
:100CE000009800140221414304A8405E002811D45A
:100CF000009800140221414304A8405E009909B203
:100D000002224A4304A9895E884203DA009800144B
:100D100069460880761CD3E76846009909B202222A
:100D20004A4304A9895EC18001E06846C4800298F4
:100D3000001424B201990914611A884206DA68463F
:100D40000481684601990914611A4181019800B231
:100D5000012802D1002006000DE0E41E24B2332C4D
:100D600000DB00E7029800B204006846019909B26E
:100D7000491C8180F7E636B2A02E0BDA36B202208B
:100D8000704304A9085E36B204217143549A50504E
:100D9000761CF0E724B255980460009800B2022156
:100DA000414304A8405E56990860569800680028A0
:100DB00002D424B23C2C03DB559800685699086095
:100DC000009800B257B0F0BD8340002040E5FF1FFF
:100DD00060F3FF1FFBB59A4885441700002002907E
:100DE000192000901E20049014200390FFA8806D0D
:100DF000C01B0B2800DAA5E277200400002C07D4E2
:100E00000020C0430421614323AA5050641EF5E72B
:100E1000FFA8806D0400BC4250DBFFA8406D0500B8
:100E2000002D22D4002D05D1002004216143D7AA32
:100E300050501AE0CB48005DA0214843CA49081829
:100E4000405D00280FD1C748005DA0214843C64936
:100E500008184019401E0078012804D1042060437E
:100E6000D7A90D5001E06D1EDAE7FFA8406D05001F
:100E7000A02D21DA9F2D05D19F20042161439BAA3B
:100E8000505019E0B748005DA0214843B649081802
:100E9000405D00280ED1B348005DA0214843B2490F
:100EA000081840194078012804D1042060439BA908
:100EB0000D5001E06D1CDBE7641EACE7002006006E
:100EC000FFA8806D0400BC4200DABBE00420604350
:100ED000D7A908580099884226DB04206043D7A987
:100EE00008580099401A9F49095DA02251439E4A23
:100EF0005118085C002817D104206043D7A908586E
:100F00000421614323AA505004206043D7A9085804
:100F10009449095DA0225143934A51180818401E74
:100F20000078012800D1761C9F200099401A0421E6
:100F300061439BAA5158884200DA7EE00420604356
:100F40009BA90858009940188649095DA022514381
:100F5000854A5118085C00286FD10420604323A9FA
:100F600008580021C943884233D1042060439BA91B
:100F700008580421614323AA5050042060439BA9D0
:100F800008587849095DA0225143774A511808183A
:100F90004078012851D1042060439BA90858714929
:100FA000095DA0225143704A511808188078012821
:100FB00043D1042060439BA908586A49095DA022D7
:100FC0005143694A51180818C078012835D1761C58
:100FD00033E00020C0430421614323AA5050042081
:100FE0006043D7A908585F49095DA02251435E4A72
:100FF00051180818401E007801281ED104206043B3
:10100000D7A908585749095DA0225143564A51189B
:101010000818801E007801280FD104206043D7A94A
:1010200008585049095DA02251434F4A51180818E9
:10103000C01E0078012800D1761E641E43E700BF61
:10104000B0FBFFFF14A83C2102F004FC05A83C21E2
:1010500002F000FC0020BD4908800020BC49088047
:101060000020BC490870BC480078012800D0BDE0D1
:10107000BA480078012800D0B8E0032E00DAB5E0C5
:10108000B7480078012800D1B0E0B64800680728CA
:1010900000D1ABE0B3480068082800D1A6E02320C7
:1010A0000400142C41DB0420604323A908580021CC
:1010B000C943884237D00420604323A9085805005B
:1010C0000420604323A908580A3885420FDB2548CD
:1010D000005DA021484324490818405D012804D13F
:1010E00014A8005D401C14A908556D1EE8E70420F3
:1010F000604323A9085805000420604323A9085829
:101100000A30A8420FDB1748005DA021484316496A
:101110000818405D012804D105A8005D401C05A900
:1011200008556D1CE8E7641EBBE723200400142C5F
:101130001CDB0420604323A908580021C9438842CE
:101140000DD08248008814A9095D40187F490880A5
:101150007F48008805A9095D40187D490880641E04
:10116000E5E700BF40E5FF1F60F3FF1F7748002160
:10117000405E2D2819DB75480021405E4C2814DAAA
:1011800073480021405E06280FDA3521002002F066
:10119000FBFC0020C0436F49087000206F490870B5
:1011A0003521002002F0F0FC20E069480021405E7B
:1011B0002D2818DB66480021405E4C2813DA63486E
:1011C0000021405E06280EDA3621002002F0DCFC09
:1011D0000120604908700020604908703621002015
:1011E00002F0D2FC02E000205A4908705948002160
:1011F0004056002802D002F01FFD01E002F025FD5C
:10120000642069460871FFA8806D401E0400BC423E
:1012100038DB0420604323A90858002830D4042078
:10122000604323A908184068002829D4002005003D
:101230000B2D25DA0420604323A9085804216143BB
:1012400023AA511849684018022102F091FA611B43
:1012500004225143D7AA50500420604323A90858C0
:101260000421614323AA511849684018022102F061
:101270007FFA611B042251439BAA50506D1CD7E793
:10128000641EC4E7FFA8806D0400BC4211DB04208B
:101290006043D7A90858042161439BAA51584018BC
:1012A000022102F065FA042161435FAA5050641ED6
:1012B000EBE7FFA8806D0400BC4211DB0420604313
:1012C00023A908580021C943884207D0042060435D
:1012D00023A90858042161435FAA5050641EEBE71C
:1012E000FFA8806D0400BC4225DB04206043D7A921
:1012F000085804216143FFAAD26D50500420604376
:101300009BA9085804216143FFAA526F5050042042
:1013100060435FA9085804216143FFAA926F5050AF
:101320000420604323A9085804216143FFAAD26F17
:101330005050641ED7E7694604200856FFA9803143
:101340000968086068488544F0BD000040400020FE
:1013500042400020884000207B400020CCE5FF1F59
:1013600082400020A83F0020FCB5FBB007000E0023
:101370000A2002903C2001900A200090B81B0B2804
:1013800004DA5A4800685A49086075E001988742B3
:1013900004DB019802997118884200DA01970098DD
:1013A00002997118884202DB0098874202DA02989B
:1013B000301800903C00B4420BDB50200421614304
:1013C0007B9A5158401A0421614303AA5050641E6D
:1013D000F1E70020050001980400009884420BDB2F
:1013E000042060437B99085802F0D8FE290002F0DF
:1013F000F0FE0500641EF0E701980099401A401CB9
:1014000002F0CCFE0100280002F073FF0500280066
:1014100002F0C4FF02000B000020364903F03AF846
:1014200003F0AFF8324908603348007801281FD133
:101430003248007832490978884207D22C4801683E
:10144000304802F0C6FE2A49086011E02C480078B6
:101450002A490978884207D2254801682A4802F0BB
:10146000B8FE2349086003E021480068204908606D
:101470001F4800681D4908607DB0F0BD10B5234CC1
:10148000A54405AA06A922486844FFF759FB0400B1
:1014900004A8039007A802907FA80190F7A80090E5
:1014A000FFABFF33C133059A06992000FFF792FC8A
:1014B00004985A2802D1174817490860164800684E
:1014C000002103F08FF806D213480068134902F098
:1014D00080FE11490860049B7FAA05990698FFF7D2
:1014E00043FF0F48854410BD5C040000983F002076
:1014F000943F002000E053408240002085400020BF
:10150000844000200000D0C100007041E0F5FFFFE2
:101510009C070000000020419C3F0020000080BF8D
:10152000200A0000F0B58BB0002400250020694699
:101530004881002069460881002609A80021016031
:1015400008A8002101600027002069468873002058
:101550000790002006900020A64908700020A649A8
:1015600008700020A54908700020A54908700020D7
:10157000A4490870002069468881A34800784F304C
:10158000022102F0F5F8A149087000209D49087079
:10159000002007000020694648819F206946088195
:1015A0009A480078812803D380209849087006E083
:1015B00096480078202802D22020944908703B20C9
:1015C000040024B2362C00DA8BE224B204206043FB
:1015D0008F490858049000208E49087000208E49D9
:1015E0000870684602990914891F4181684602996A
:1015F00009B2891D018102980014012802DA012034
:1016000069464881029800B29F2802DB9E20694605
:10161000088124B2052060438049081840790500FC
:1016200002980014401E2DB2A8420CDA2DB2049884
:10163000405D012805D10120764908706846458142
:1016400001E06D1EECE724B20520604373490818E1
:10165000407905002DB2029800B2401C85420CDA98
:101660002DB20498405D012805D101206A49087017
:101670006846058101E06D1CECE7AB4800786649DF
:1016800009784018022800D0CAE0029800B20299F6
:101690000914401A322801DA7F1C82E002980014F3
:1016A000029909B24018022102F062F824B2052121
:1016B00061435A4A5054200024B205216143574ADD
:1016C00051184870022024B205216143534A511831
:1016D00088700298001424B2052161434F4A5118C2
:1016E000C870029800B224B2052161434B4A5118D8
:1016F000087124B2052060434849085C502828DA64
:1017000002980014029909B24018022102F030F840
:1017100024B205216143414A505424B2052060435C
:101720003E49085C9F2806DB9E2024B205216143C8
:101730003A4A505435E024B2052060433749085CEA
:1017400000282ED1012024B205216143334A505490
:1017500027E002980014029909B24018022102F011
:1017600007F824B2052161432C4A505424B20520C5
:1017700060432A49085C9F2806DB9E2024B205218D
:101780006143264A50540CE024B2052060432349AB
:10179000085C002805D1012024B2052161431F4ABD
:1017A0005054FFB2022F12DB25002DB2772D0CDA38
:1017B00024B2052060431949085C24B20521614325
:1017C000164A511848716D1CEFE70020070024B23B
:1017D0000520604311490818C078401F69464881B8
:1017E00024B2052060430D4908180079401D694660
:1017F00008815EE18A4000208B4000208C40002060
:101800008D4000208E400020873F00208C3F00202C
:1018100014E4FF1F8F40002090400020603E002015
:1018200041480078D04909784018012800D0F6E0F6
:101830003D480078012875D1200024B2052161437C
:10184000CA4A511848700020C04324B205216143A0
:10185000C64A511888700298001424B205216143C9
:10186000C24A5118C8709E2024B205216143BF4A64
:101870005118087124B205206043BC490818C0788B
:1018800024B205216143B94A51180979401802214F
:1018900001F06EFF24B205216143B44A505424B2D2
:1018A00005206043B149085C9F2811DB9E2024B2CB
:1018B00005216143AD4A505424B205206043AB4931
:1018C000081840799E2803D12000C0B201F063FCC3
:1018D00024B205206043A549085C24B20521614378
:1018E000A24A5118497988420AD224B2052060439D
:1018F0009E490818407924B2052161439B4A5054FF
:1019000024B20520604399490818C078001F694631
:101910004881684624B205216143944A51180979E7
:101920000181C6E0904801E08F4000200078012846
:1019300000D0BEE0200024B2052161438B4A51183B
:101940004870012024B205216143884A51188870EB
:10195000012024B205216143844A5118C8700298BD
:1019600000B224B205216143804A5118087124B2A3
:10197000052060437D490818C07824B205216143E1
:101980007A4A511809794018022101F0F1FE24B277
:1019900005216143754A505424B2052060437349C0
:1019A000085C002811D1012024B2052161436F4A4F
:1019B000505424B2052060436C490818407901282E
:1019C00003D12000C0B201F0E6FB24B20520604341
:1019D00066490818407924B205216143634A515C85
:1019E00088420AD224B20520604360490818407931
:1019F00024B2052161435D4A5054684624B2052152
:101A000061435A4A5118C978418124B20520604384
:101A1000564908180079001D6946088149E07F1C75
:101A200024B20520604351490818407924B20521A9
:101A300061434E4A5054200024B2052161434B4A71
:101A400051184870002024B205216143474A5118BB
:101A5000887024B20520604344490818407924B2B4
:101A60008349095D401A24B2052161433F4A511858
:101A7000C87024B2052060433C490818407924B25C
:101A80007B49095D401824B205216143374A51184A
:101A90000871684624B205216143344A5118C97857
:101AA0004181684624B205216143304A51180979C1
:101AB00001816846DA4909782B4A127889188173BE
:101AC00024B2052060432949085C022148430221D1
:101AD00001F04EFE401CC0B2049901220A54641E5B
:101AE0006FE5FFB2052F46DB24B2052060431F4996
:101AF000085C24B204216143CA4A5118091F0968CD
:101B0000085C01281DD024B2052060431749085CF9
:101B100024B204216143C34A511808390968085C9A
:101B200001280ED024B2052060431049085C24B27D
:101B300004216143BB4A51180C390968085C01282B
:101B400016D124B2052060430849085C24B2042160
:101B50006143B44A5118091F09681D220A54200024
:101B6000C0B201F018FB00BF90400020603E002092
:101B70000120AD4908700020070000206946087563
:101B800000206946C8733520040024B2022C01DA13
:101B900001F0D5FA24B204206043A2490858049009
:101BA00000209F4908700020A04908700298001486
:101BB000012802DA012069464881029800B29F2874
:101BC00002DB9E206946088124B2052060439849C3
:101BD00008184079050002980014401E2DB2A84252
:101BE0001FDA2DB20498405D012814D12DB204985B
:101BF0004019401E0078012811D101208849087041
:101C000068464581684609A94A888284029800147A
:101C100009A9488005E008202DB2049948556D1E99
:101C2000D9E724B2052060438149081840790500AE
:101C30002DB2029800B2401C854221DA2DB20498E0
:101C4000405D012816D12DB2049840194078012832
:101C500014D101207549087068460581684608A9B5
:101C60004A880284029800B208A9488008E000BFB0
:101C70007CE5FF1F08202DB2049948556D1CD7E75D
:101C800067480078694909784018022801D000F0B7
:101C900043FC68480078012800D073E366480021BF
:101CA000405E6649884200DA6CE365480168654831
:101CB00002F08FFA400040088321C90502F0A6FC1B
:101CC00000D35FE324B2132C00DA5BE324B2372C99
:101CD00000DB57E324B205206043554908184079DA
:101CE000503802F05BFA40004008574902F08EFC81
:101CF00000D347E36846807B022800D042E324B249
:101D0000052060434A4908184079401C02F0A6FCAF
:101D10000090019124B2200002F0A0FCE3A20CCAC2
:101D200002F0B6FC00228023DB0502F050FB009A93
:101D3000019B02F04CFB0022444B02F06BFD1ED8CD
:101D400024B2200002F08AFCD8A20CCA02F0A0FC47
:101D500000228023DB0502F03AFB00223C4B02F01C
:101D600036FB02000B0000203A4902F093FB02F020
:101D70006BFD24B2052161432D4A5118487124B2EC
:101D8000052060432A4908184079401E02F066FC8D
:101D90000090019124B2200002F060FCC3A20CCAA2
:101DA00002F076FC00228023DB0502F010FB02002B
:101DB0000B000098019902F06DFB0122E24B02F04A
:101DC0006CFD1CD224B2200002F048FCB7A20CCA61
:101DD00002F05EFC00228023DB0502F0F8FA00220C
:101DE0001B4B02F0F4FA0022D74B02F0F0FA02F09B
:101DF0002BFD24B2052161430D4A5118487124B2CC
:101E0000052060430A4908184079772824DB7720A9
:101E100024B205216143064A511848712BE000BFE6
:101E20008F40002014E4FF1F8E40002090400020CF
:101E3000603E00207A40002050400020AD0D0000A0
:101E4000D0E5FF1F0000A0C20000E8410060614033
:101E50000000F03F00A0624024B205206043BB496F
:101E600008184079292806DA282024B20521614380
:101E7000B64A511848710020060024B2052060437C
:101E8000B24908184079401C02F0E8FB009001912B
:101E900024B2200002F0E2FB84A20CCA02F0F8FB9C
:101EA00000228023DB0502F092FA009A019B02F0E7
:101EB0008EFA02F0C9FCC0B224B2A5490919491E24
:101EC0000978A0225143A34A5118085C012800D187
:101ED000761C24B2052060439C4908184079401CB8
:101EE00002F0BCFB0090019124B2200002F0B6FB8E
:101EF0006EA20CCA02F0CCFB00228023DB0502F0AC
:101F000066FA009A019B02F062FA02F09DFCC0B2F0
:101F100024B28F490919891E0978A02251438D4A9C
:101F20005118085C012800D1761C24B205206043BA
:101F3000864908184079401C02F090FB00900191FE
:101F400024B2200002F08AFB58A20CCA02F0A0FBC7
:101F500000228023DB0502F03AFA009A019B02F08E
:101F600036FA02F071FCC0B224B279490919C91ECF
:101F70000978A0225143774A5118085C012800D102
:101F8000761C24B205206043704908184079401E31
:101F900002F064FB0090019124B2200002F05EFB8D
:101FA00042A20CCA02F074FB00228023DB0502F07F
:101FB0000EFA02000B000098019902F06BFA02F091
:101FC00043FCC0B224B262490919491E0978A02213
:101FD0005143604A5118085C012800D1761C24B294
:101FE00005206043594908184079401E02F036FB2D
:101FF0000090019124B2200002F030FB2BA20CCA09
:1020000002F046FB00228023DB0502F0E0F902002B
:102010000B000098019902F03DFA02F015FCC0B2E5
:1020200024B24B490919891E0978A0225143494A13
:102030005118085C012800D1761C24B205206043A9
:10204000424908184079401E02F008FB00900191B7
:1020500024B2200002F002FB14A20CCA02F018FB0A
:1020600000228023DB0502F0B2F902000B00009889
:10207000019902F00FFA02F0E7FBC0B224B2344932
:102080000919C91E0978A0225143324A5118085C27
:10209000012800D1761C24B2052060432B49085C3E
:1020A00024B205216143294A04E000BF33333333AE
:1020B0003333D33F51184979401A02F06FF840008A
:1020C0004008AF4902F0A2FA00D35BE136B2012E1C
:1020D00000DA57E100200600012069468881039854
:1020E00000B208286BDA24B20520604317490818AB
:1020F0004079401C02F0B2FA0090019124B203989A
:1021000000B2201A02F0AAFADFA20CCA02F0C0FA4A
:1021100000228023DB0502F05AF9009A019B02F0AD
:1021200056F902F091FBC0B224B2039909B2611AC8
:10213000074A515CA0225143064A5118085C012805
:102140000AD1761C35E000BF00003440603E00201C
:1021500004E5FF1F60F3FF1F24B205206043CC4954
:1021600008184079401C02F079FA0090019124B2DD
:10217000039800B2201A02F071FAC3A20CCA02F04E
:1021800087FA00228023DB0502F021F9009A019BE7
:1021900002F01DF902F058FBC0B224B2039909B253
:1021A000611AB84A515CA0225143B54A51185822CD
:1021B0000A546846039909B2491C81818FE736B2F7
:1021C000012E00DADEE036B2032E00DBDAE000207A
:1021D0000600012069468881039800B2072866DA64
:1021E00024B205206043AA4908184079401E02F035
:1021F00035FA0090019124B2039800B2201A02F03F
:102200002DFAA1A20CCA02F043FA00228023DB05BA
:1022100002F0DDF802000B000098019902F03AF993
:1022200002F012FBC0B224B2039909B2611A954AB6
:10223000515CA0225143924A5118085C012801D1F7
:10224000761C2EE024B2052060439149081840799D
:10225000401E02F003FA0090019124B2039800B2EC
:10226000201A02F0FBF988A20CCA02F011FA00222F
:102270008023DB0502F0ABF802000B000098019907
:1022800002F008F902F0E0FAC0B224B2039909B2F0
:10229000611A7C4A515CA0225143794A5118582254
:1022A0000A546846039909B2491C818194E736B201
:1022B000012E67DB36B2032E64DA24B205206043B8
:1022C000734908184079401C02F0C8F90090019148
:1022D00024B2039800B2201A02F0C0F96AA20CCA14
:1022E00002F0D6F900228023DB0502F070F8009A94
:1022F000019B02F06CF802F0A7FAC0B224B2614967
:102300000919491F0978A02251435D4A5118085CF8
:10231000012837D024B2052060435D490818407970
:10232000401E02F09BF90090019124B2039800B284
:10233000201A02F093F954A20CCA02F0A9F9002263
:102340008023DB0502F043F802000B00009801999E
:1023500002F0A0F802F078FAC0B224B24949091993
:10236000491F0978A0225143454A5118085C0128A9
:1023700008D02000934908702000C0B200F00BFF85
:1023800000004040029800B202990914401A0A283D
:1023900000DA81E002980014029909B24018022183
:1023A00001F0E6F924B205216143394A5054200076
:1023B00024B205216143364A51184870022024B2E4
:1023C00005216143324A511888700298001424B2E2
:1023D000052161432E4A5118C870029800B224B2F8
:1023E000052161432A4A51180871402024B2052171
:1023F0006143274A515C049A5054FFB2022F4BDBD1
:1024000024B2052060432249085C24B2FFB2E119DE
:10241000052251431E4A51184979401AFFB239002A
:10242000491C01F0A5F90600012005002DB2FFB2FC
:102430003800401C85422DDA24B22DB262190520E5
:102440004243134924B205206043114B1B5C36B252
:102450002DB230006843181A885424B22DB2601986
:10246000052148430A49085C24B22DB261190422AF
:102470005143554A515826220A546D1CD6E700BFD5
:1024800060F3FF1F04E5FF1F333333333333D33F90
:10249000603E0020002007004C480068072803D059
:1024A0004A480068082820D14848006807280CD10D
:1024B0000298001424B2DA49095D40180A3824B29F
:1024C00005216143D74A50540FE04048006808286E
:1024D0000BD1029800B224B2D149095D401A0A30EA
:1024E00024B205216143CF4A505424B205206043F1
:1024F000CC490818C0780A386946488124B20520BA
:102500006043C849081800790A30694608810220EA
:102510006946887300F0D5FDC3480078C34909783F
:102520004018012800D088E3BF480078012800D077
:102530007EE1072024B205216143BA4A51180856AA
:10254000002808D00C2024B205216143B54A511857
:10255000085600280BD124B205206043B149081861
:10256000407924B205216143AE4A50543CE0072033
:1025700024B205216143AB4A511808560021C943D2
:10258000884208D0072024B205216143A54A51188A
:10259000085602281CD10298001424B20521614378
:1025A000A04A51184979401824B2052161439D4A37
:1025B0005118097A401A401E24B205216143994AF4
:1025C000505411E07C40002014E4FF1FA83F00207D
:1025D0000298001424B29249095D40180F3024B2C9
:1025E000052161438F4A5054200024B205216143E4
:1025F0008C4A511848700020C04324B20521614321
:10260000884A511888700298001424B20521614349
:10261000844A5118C87024B2052060438149085C7F
:1026200024B2052161437F4A515C40180299091484
:10263000401A24B2052161437A4A5118087124B224
:10264000052060437749081800799F2807DB9E2002
:1026500024B205216143734A511808710EE024B277
:10266000052060436F4908180079002806D1012031
:1026700024B2052161436B4A5118087124B2052028
:102680006043684908180079049901220A54CB482C
:102690000078401CC9490870C8480078092814DB34
:1026A000C7480078022810DAC648007800280CD104
:1026B000C5480078002808D124B205206043594954
:1026C000081827300078C049087024B205206043FC
:1026D00054490818407924B205216143514A515C9C
:1026E000884218D324B2052060434E490818407927
:1026F00024B2052161434B4A5118897A401824B20B
:1027000005216143474A5118C97B401A24B205216B
:102710006143444A50546846807B022831D124B238
:10272000052060433F49085C24B2052161433D4ACE
:102730005118487124B2052060433A49085C24B21C
:1027400005216143374A5118887224B2052060433D
:1027500034490818407924B2042161437B4A511856
:10276000496802220A5424B2052060432D49081802
:10277000407924B204216143744A51184968022205
:102780000A54D648007801280AD10298001424B2CD
:102790002349095D401824B205216143214A505460
:1027A000CF480068072803D0CD480068082820D10A
:1027B000CB48006807280CD10298001424B21849AD
:1027C000095D40180A3824B205216143154A505466
:1027D0000FE0C348006808280BD1029800B224B269
:1027E0000F49095D401A0A3024B2052161430D4AA0
:1027F00050546846029909140A39418124B20520CF
:10280000604308490818407924B20549095D401819
:102810000A306946088101206946887386E100BF55
:102820007CE5FF1F603E00208F400020904000208C
:10283000072024B205216143D54A511808560028C3
:1028400008D00C2024B205216143D14A5118085602
:1028500000280BD124B205206043CD4908184079E7
:1028600024B205216143CA4A505434E0072024B2FF
:1028700005216143C64A51180856012808D007208F
:1028800024B205216143C24A51180856022816D1C4
:10289000029800B224B205216143BD4A5118497A19
:1028A000401A24B205216143B94A511849794018A8
:1028B000401C24B205216143B54A50540BE00298F4
:1028C00000B224B2D949095D401A0F3824B205215B
:1028D0006143AF4A5054200024B205216143AC4A01
:1028E00051184870012024B205216143A84A5118AB
:1028F000887024B205206043A549085C029909B29A
:10290000401A24B205216143A14A515C401824B207
:10291000052161439E4A5118C870029800B224B242
:10292000052161439A4A5118087124B20520604379
:1029300097490818C0789F280ADB9E2024B20521F9
:102940006143934A5118C87011E000BF14E4FF1F9F
:1029500024B2052060438E490818C078002806D1AB
:10296000012024B205216143894A5118C87024B25C
:102970000520604386490818C078049901220A544A
:102980000F480078401C0E4908700D48007809284F
:102990001DDB0A480078022819DA0B480078002865
:1029A00015D108480078002811D124B205206043D1
:1029B0007749081826300078024907E08A4000204D
:1029C0008B4000208D4000208C400020087024B2F5
:1029D000052060436E49085C24B2052161436C4ABE
:1029E00051184979884218D324B2052060436849B8
:1029F0000818407924B205216143654A5118C97B02
:102A0000401A24B205216143614A5118897A40185D
:102A100024B2052161435E4A50546846807B0228F7
:102A200031D124B2052060435949085C24B2052104
:102A30006143574A5118487124B2052060435449F4
:102A4000085C24B205216143514A5118887224B2AE
:102A5000052060434E490818407924B2042161439F
:102A6000734A5118496802220A5424B2052060436F
:102A700047490818807A24B2042161436C4A5118EE
:102A8000896802220A541548007801280AD1029860
:102A900000B224B26549095D401A24B205216143A0
:102AA0003B4A50540E480068072803D00C48006881
:102AB000082826D10A48006807280CD1029800147B
:102AC00024B25A49095D40180A3824B205216143ED
:102AD0002F4A505415E0024804E000BF8340002014
:102AE000A83F0020006808280BD1029800B224B249
:102AF0004E49095D401A0A3024B205216143244A37
:102B0000505424B20520604321490818407924B26A
:102B10004649095D401A0A38694648816846029963
:102B200009B20A31018101206946887324B2052067
:102B300060431749085C9E2811DB9E2024B20521C2
:102B40006143134A505424B20520604310490818C9
:102B500040799E281ED1E41C2000C0B21BE324B2A1
:102B6000052060430A49085C022813DA012024B2D8
:102B700005216143064A505424B2052060430449AC
:102B800008184079012805D1E41C2000C0B202E3F6
:102B9000603E0020FB2024B205216143D14A515CF4
:102BA000049A5054FFB2022F00DA8AE224B20520C0
:102BB0006043CC49085C24B2FFB2E11905225143BD
:102BC000C84A51184979401AFFB23900491C00F02F
:102BD000CFFD0600012005002DB2FFB23800401CD9
:102BE000854227DA24B22DB2621905204243BD493D
:102BF00024B205206043BB4B1B5C36B22DB23000C3
:102C00006843181A885424B22DB26019052148432C
:102C1000B449085C24B22DB2611904225143044A1C
:102C2000515826220A546D1CD6E700BF7CE5FF1FD1
:102C300014E4FF1F0020070043E200206946887368
:102C40007F1CFFB2052F09DBC9480078012805D198
:102C500024B2652C02DB0220C5490870C548007803
:102C6000C5490978401A042100F082FD01F096FA66
:102C70000790C2480078C2490978401A042100F040
:102C800077FD01F08BFA06900798002101F0BEFC59
:102C900001D8BC4807900798BB4901F0A3FC01D8B4
:102CA000B94807900698002101F0B0FC01D8B5485A
:102CB00006900698B44901F095FC01D8B2480690F8
:102CC00024B2FFB2E0190521484386490818807CE8
:102CD000512808DB24B2FFB2E0190521484381499D
:102CE00008185021817424B2FFB2E019052148432D
:102CF0007C490818C07C502808DA24B2FFB2E019D9
:102D000005214843774908185021C174200024B296
:102D100005216143734A51184870002024B20521EF
:102D20006143704A5118887024B2FFB2E01905213E
:102D300048436C490818807C01F03CFA010000917E
:102D4000FFB23800C01C01F029FA079901F0BEFD5E
:102D5000009901F03EFA01008020C00501F039FA27
:102D600001F00EFE24B2052161435E4A5118C8707D
:102D700024B2FFB2E019052148435A490818C07C23
:102D800001F018FA0090FFB23800C01C01F006FAFA
:102D9000069901F09BFD0100009801F052FA010034
:102DA000C020000601F015FA01F0EAFD24B2052169
:102DB00061434C4A5118087124B2052060434949C7
:102DC0000818C07824B205216143464A5118097990
:102DD0004018022100F0CCFC24B205216143414A95
:102DE000505424B2052060433E490818007A24B2AA
:102DF000052161433B4A5118C978884219D324B24E
:102E00000520604337490818007A24B20521614340
:102E1000344A5118497B401824B205216143314A94
:102E20005118897C401A24B2052161432D4A51185A
:102E3000C87024B2052060432A490818007924B2DA
:102E400005216143274A5118497A884219D324B28F
:102E50000520604323490818407A24B205216143C4
:102E6000204A5118C97C401A24B2052161431D4AE9
:102E70005118897B401824B205216143194A511821
:102E8000087124B20520604316490818C07824B29E
:102E900005216143134A51180979401A01280FDBB3
:102EA0005021009124B2BD48005D022100F060FC79
:102EB0000099081A24B2052161430A4A5118C870C2
:102EC00024B20520604307490818007924B205217F
:102ED0006143044A5118C978401A00280FD524B21A
:102EE000AE4801E0603E0020005D022100F040FCA1
:102EF000503024B205216143A94A5118087124B207
:102F000005206043A6490818C0789F2807DB9E204B
:102F100024B205216143A24A5118C8700EE024B2C0
:102F2000052060439E490818C078002806D101207A
:102F300024B2052161439A4A5118C87024B2052071
:102F4000604397490818C078049901220A5424B2B2
:102F5000052060439249081800799F2816DB9E20BF
:102F600024B2052161438E4A511808711DE000BF4B
:102F70008E400020713F00208A3F00208B3F0020C0
:102F8000723F00200AD7233CCDCC4C3E24B2052012
:102F90006043834908180079002806D1012024B233
:102FA000052161437E4A5118087124B2052060430F
:102FB0007B4908180079049901220A5424B205209B
:102FC00060437749085C24B205216143744A511873
:102FD000897A401A24B205216143714A515C24B2B6
:102FE000052262436E4B9A18927A891A4843102838
:102FF00032D124B20520604369490818407924B2CF
:1030000005216143664A5118C97B401A24B2052143
:103010006143634A5118497924B205226243604BE7
:103020009A18D27B891A4843102815D124B205205A
:1030300060435B490818407924B205216143584A2E
:10304000505424B2052060435549085C24B2052140
:103050006143534A5118887224B205206043504995
:10306000085C9A2806DB992024B2052161434C4A6A
:1030700050540CE024B2052060434949085C0628FE
:1030800005DA062024B205216143454A505424B292
:103090000520604342490818C0780E3869464881C7
:1030A00024B2052060433E49081800790E30694675
:1030B0000881012024B205216143394A515C049AF8
:1030C000505424B2052060433549085C24B20421E1
:1030D0006143344A5118091F0968085C01280ED061
:1030E00024B2052060432E49085C24B204216143C8
:1030F0002C4A511808390968085C01280ED124B2FD
:10310000052060432649085C24B204216143254A16
:103110005118091F09681D220A5410E024B2052025
:1031200060431F49085C02214843022100F020FB54
:103130000499081801214170641EFEF726FD24B28F
:10314000052060431649085C24B205216143144AF6
:1031500051184979401A01F081FA490049080122C1
:10316000114B01F057FB13D824B2052060430C49E2
:10317000085C24B205216143094A51184979401A73
:10318000022100F0F5FA24B205216143044A5054AB
:10319000641C2000C0B20BB0F0BD00007CE5FF1F36
:1031A000603E002014E4FF1F00001440F0B583B01F
:1031B0000024002069464880002001900020A24998
:1031C0000870FEF7AFF9A1490880A0480088C0B296
:1031D00000F026FA9E4908809E4800689E490860D3
:1031E0000020694608800027BD48007801281BD1CF
:1031F0000020BC4908700020BB490860BB4800881B
:10320000BB4909884018B949088000F015FDB74846
:103210000021405EB749884208DB0020B0490870B1
:103220000020B249088001E000F00FFDB2480078AC
:10323000002813D1B1480088AD4909884018AF492A
:103240000880AE480021405EFA214901884205DB32
:103250000120A94908700020A8490880A8480078E2
:10326000002812D1A5480088A14909884018A3491F
:103270000880A2480021405EA249884205DB012067
:103280009F49087000209D4908803B20040024B21B
:103290001E2C0BDB022024B205216143C14A5118C8
:1032A0000856022800D17F1C641EF0E7BE48007853
:1032B00001280ED100208C49086000F0BDFCBFB28F
:1032C0001B2F08DB0020B8490870002086490860E1
:1032D00001E000F0BAFCB5480078012822D182480C
:1032E0000068072803D080480068082806D1C7482E
:1032F00000887F4909884018C4490880BFB21B2F45
:103300006CDBC2480021405EC149884266DB002078
:10331000754908600020BD4908803421002000F074
:1033200033FC5BE0002600253B20040047480021D9
:10333000405E24B2A04217DA022024B20521614384
:10334000984A511808560021C943884200D1761C7A
:10335000022024B205216143924A511808560128DF
:1033600000D16D1C641EE1E75F480068072803D0A8
:103370005D48006808281DD134480021405E0528BA
:1033800018DAB6B2152E02DBADB2022D05DBADB2F6
:10339000152D0FDBB6B2022E0CDA9E4800689E494E
:1033A00001F034F906D2994800885149098840183B
:1033B00096490880BFB21B2F10DB94480021405E65
:1033C000FA214900884209DB0020474908600020B3
:1033D0008E4908803421002000F0D6FB44480021AB
:1033E000405E652803DB1D208C49087039E04048A9
:1033F0000021405E512803DB1B208849087030E023
:103400003B480021405E472803DB1A2083490870AF
:1034100027E037480021405E3D2803DB19207F4923
:1034200008701EE032480021405E332803DB18207C
:103430007A49087015E02E480021405E29280DDBEE
:103440001720764908700CE091400020444000208D
:1034500046400020D4E5FF1FD8E5FF1F16206F4926
:1034600008703C206D490978401AA8490022895EFD
:1034700088421FDBFF203230684909784A42052123
:103480004A4348498918085C96214900634A1278E2
:10349000534205225343434AD218515C401802213B
:1034A00000F066F900F07AFE9649086000208F4926
:1034B000087068E095480021405E272824DB934887
:1034C0000021405E0521414336484018407900F014
:1034D00071FE8C490860FF208449087053E000BFEA
:1034E000894000207C400020A83F00204840002068
:1034F0004E4000207C150000CCE5FF1F4C40002012
:1035000086400020C40900003C2044490978401A44
:103510007E490022895E884231DA012073490870B1
:10352000794801687848406800F053FE7649896818
:1035300000F04FFE00F032FF00226D4B00F047FF1D
:103540006CA20CCA01F039FA0022714B00F03FFF67
:1035500001F017F86B4908606A480068674901F094
:1035600055F802D2664867490860664800686949AC
:1035700001F038F807D867486249086003E06648F8
:103580000068604908605F480068634908606248F5
:103590000068624901F03AF80AD261485E49086061
:1035A0000FE000BF603E00208340002078400020F4
:1035B000594800685B4901F015F802D85948564946
:1035C00008605048006858490978042251434E4A1F
:1035D000505055480078401C53490870C0B2032829
:1035E00002DB0020504908704B48006800F0D6FE0E
:1035F00002000B000020464900F04CFF00F0C1FF24
:103600000449086041480021405EFEBD4A40002058
:103610001C0C0000943F00200000A0416E400020E0
:1036200070B50600002400250020404908700020E5
:103630003F49087000203F490870002005003520F0
:103640000400F6B2E4B2A64230D2E4B205206043F0
:103650003949085CE4B205216143374A5118491FD2
:103660000978401A012805DB31480078401C3049B0
:10367000087019E0E4B2052060432F490818401F84
:103680000078E4B2052161432B4A515C401A0128BD
:1036900005DB26480078401C2449087004E02548D2
:1036A0000078401C23490870641ECAE735200400D6
:1036B000F6B2E4B2A64215D2E4B2052060431E4938
:1036C000085C00F0D5FF00221C4B00F080FE00F0EB
:1036D00058FF400040081A4900F098FF00D26D1CC6
:1036E000641EE5E72800C0B270BD000091400020D4
:1036F00000D06DC0CDCCCCCCCCCC0440010010416E
:1037000000001041D4E5FF1FDCE5FF1F444000200E
:1037100000E0534000001643D0E5FF1F0100404089
:103720000000404000001C439240002093400020D5
:103730009440002095400020603E002000E053C0EF
:103740000100A041F446002804D4494200F013F8D7
:10375000404260474042002905D45FD000F00BF89A
:10376000404249426047494200F005F849426047FB
:1037700003460B43E6D40022030A8B420BD2030913
:103780008B4219D243088B422ED2411A00D20146F5
:10379000524110467047FF2209023FD012068B4269
:1037A00005D3121209028B4201D312120902030936
:1037B0008B4219D300E0090AC3098B4201D3CB0124
:1037C000C01A524183098B4201D38B01C01A524166
:1037D00043098B4201D34B01C01A524103098B426A
:1037E00001D30B01C01A5241C3088B4201D3CB0055
:1037F000C01A524183088B4201D38B00C01A524138
:1038000043088B4201D34B00C01A5241884200D377
:10381000401A5241CFD201461046704708B501F018
:103820002DF908BD130030B414001500103902D36F
:1038300010393CC0FCD2490700D30CC000D504C0ED
:10384000890002D30280801C002900D5027030BCA0
:10385000704700000022E5E70121C206D20E914028
:10386000BF4A11607047F1B584B00F00BD4869468A
:103870008881694610200856002803D0022825D0E8
:1038800012D335E0B84800688021C9000143B6482A
:103890000160C02189000F2001F0F2F8C0218900E9
:1038A0000E2001F0EDF823E0AF4800688021090107
:1038B0000143AD480160C0218900432001F0E0F8D8
:1038C000C0218900442001F0DBF811E0A64800681F
:1038D000802149010143A4480160C0218900622080
:1038E00001F0CEF8C0218900632001F0C9F8FFE79C
:1038F000694610200856002800D0ABE09B480068BD
:103900009B490140994801609848006899490143E2
:103910009648016098480078F3210140964801706C
:10392000002096490870964800689649484302214D
:10393000FFF71EFF029004200400E4B2212C64DA99
:103940000298E4B22100491C7943FFF714FF0600F6
:10395000B6B280208001864255DA0298B6B2E4B24F
:103960002100491C7143FFF706FF01900198C01B1D
:10397000012803DB01983900451A02E00198C01BB9
:103980004542ADB2002D05D168460680E4B26846D6
:1039900044803AE068468089ADB2854206D26846E6
:1039A000858168460680E4B268464480761CB6B2DB
:1039B00080208001864226DA0298B6B2E4B2210065
:1039C000491C7143FFF7D7FE01900198C01B0128E5
:1039D00003DB01983900451A02E00198C01B4542FB
:1039E000ADB2002D05D168460680E4B26846448039
:1039F0000BE068468089ADB2854204D268460680F5
:103A0000E4B268464480641C97E778480078E02177
:103A100001400C006846008880B2000AC006C00E53
:103A2000204372490870684600887C4908707C48C9
:103A30000078E02101400C0068464088C006C00EB6
:103A40002043774908704C4800780C2101434A48CC
:103A5000017066E069461020085604214843714908
:103A60000858C178F32008406A46102151560422B4
:103A700051436C4A5158C87000206A461021515673
:103A800004225143674A5158887067480068FA21F8
:103A9000890048430290029810217943FFF76BFE9A
:103AA000694608806846008880218901884202DBD7
:103AB0005E4869460880694610200856042148433C
:103AC000584908580078E02101400C0068460088F9
:103AD00080B2000AC006C00E20436A46102151562B
:103AE000042251434F4A51580870684600886A467C
:103AF00010215156042251434A4A51584870694690
:103B0000102008560421484346490858C1780C2023
:103B100008436A461021515604225143414A5158E4
:103B2000C87005B0F0BD00B540B2002807D1404ACA
:103B300012789206FBD53F4A12780A700EE040B226
:103B400004224243374B9A5812799206F7D540B275
:103B500004224243334B9A58D2790A7000BD0000C8
:103B600000E100E0FFFF00003480044004800440D6
:103B7000FFFFFFF30000010403A0064002A006407F
:103B8000DC3F002040420F0000B540B2002806D1C3
:103B9000274A12781206FBD5264A11700DE040B272
:103BA000042242431F4B9A5812791206F7D540B2AD
:103BB000042242431B4B9A58D17100BD00B501004D
:103BC00049B2002905D11A48007880060BD501209A
:103BD0000AE049B204204843124A1058007980068E
:103BE00001D5012000E0002000BD000000A006403B
:103BF00010B5040064B2042060430A490858C07834
:103C00002021014364B204206043064A1058C17069
:103C100020000C3040B2FFF71FFE10BD01A006408F
:103C20000AA006402CE8FF1FE83F0020FF1F00000D
:103C300004A0064007A00640B04880680068102134
:103C40000143AE48806801607047AC4880680068F6
:103C500010218843A94989680860704738B500F089
:103C6000F1F896208000A649086075480078002881
:103C70001FD0002000F07FFF00280DD1642000F04D
:103C8000A5FF002000F077FF002805D1312100209A
:103C9000FFF77AFFFFF7D0FF9A4800680128E8D1C4
:103CA000994800F093FF012098490870FFF7CDFF75
:103CB00002E001209549087001F056F89448007818
:103CC000012851D100200400002091490870FCF720
:103CD00004FC0021082001F087F98E490880FCF7D8
:103CE00087FC040000F048F88B48007801280BD0CE
:103CF00084480068072807D082480068082803D055
:103D000086480078012804D1FFF796FF00200400C0
:103D100001E0FFF79AFFE4B2002C0AD0FDF7AEFBFA
:103D200001F094FA00207E490870012001F0EFFDB7
:103D3000C2E7FFF73BFA7B4908607B480021425EFF
:103D40007A480021415E7748006801F0A9F9050032
:103D5000032001F0DCFD73480068332804D3744865
:103D60000078401C72490870C74800886E4909886D
:103D70004018C54908809FE710B507246D480078B2
:103D800000280FD164480078012803D14B206749EF
:103D900008800AE05F480021405E01F0D7FC6349DB
:103DA000088002E000206149088056480068022827
:103DB00002D178205D4908805F480078012802D14F
:103DC00000205A490880B1480021405E002812D5E1
:103DD000A6480088544909884018A4490880A34887
:103DE0000021405EA249884205DB00209F490880EF
:103DF0000020A649088043480068092802D164B21F
:103E0000A2480480A1480021405E210049B209B2C5
:103E1000884213D19E4800884349098840189C492C
:103E200008809B480021405EFA214901884205DB59
:103E300000209749088004209449088010BD0000A4
:103E40007940002080B593491C2001F07BFD0020C3
:103E5000FFF7CEFEE12149020020FFF704FD00221A
:103E60000121442001F086FD082001F021F8042002
:103E700001F030FD01F0A2FF0023874A002100205D
:103E800002F074F80023844A0121002002F06EF849
:103E900000220121442001F06DFD194803683222FF
:103EA0000021012002F062F8FCF7B6FAA64800688B
:103EB00000F0EAFEA5492E2001F044FDA44910209F
:103EC00001F040FD00F050FF00220021022002F02E
:103ED00085F9022002F0F3F99E480168052041436C
:103EE000002002F011FA9C49262001F02BFD092048
:103EF00000F018FE02F055FA01BD0000C0E7FF1FF8
:103F0000A03F0020A83F0020DC05000097400020D3
:103F1000964000205240002089400020834000202D
:103F200088400020A43F00204E400020FCE5FF1FF9
:103F300098400020824000209940002080B58748AA
:103F40000068012800D07EE08548006805280BD075
:103F500083480068062807D081480068072803D0F6
:103F60007F480068082810D17E480088401C7D49A1
:103F700008807C480088FF21F631884205DB00205C
:103F8000774908600020774908807548006809284B
:103F90000FD175480088401C73490880724800881A
:103FA0007249884205DB06203849088000206E49A6
:103FB00008806F480078002814D06E4800780128E7
:103FC00010D16D480088401C6B4908806A48008801
:103FD000FF216031884205DB00206649087000201F
:103FE000654908806348007801280FD1634800883C
:103FF000401C62490880614800886149884205DBAD
:1040000000205C49087000205C4908805D48007809
:10401000012812D100205C490880022002F05EF9DC
:1040200059490880022002F04AF957480021415EB0
:1040300056480022805E01F065FA48480068012178
:1040400001434648016001BD38B500245048056869
:104050000020C0434E490860022004002800E040D0
:10406000C00701D500F045FE31BD000056400020DC
:10407000AC0D000080B500F062FE012045490870DB
:1040800000204549087001BD5040002054400020E8
:10409000584000209D400000983A000080B5002064
:1040A000FFF78CFD01284ED169460020FFF73BFD4C
:1040B000694600200856312802D1012028490860AD
:1040C000694600200856322802D10220244908609F
:1040D000694600200856332802D103202049086091
:1040E000694600200856342805D104201C49086080
:1040F000002020490870694600200856352802D162
:10410000052017490860694600200856362802D164
:10411000062013490860694600200856372802D156
:1041200007200F490860694600200856382802D148
:1041300008200B490860694600200856392802D13A
:1041400009200749086001BD10E4FF1F4940000035
:1041500075400000E83F00203D3F00000C71034027
:10416000A83F00205A4000205C400020EF020000E1
:1041700078400020824000205E4000206040002007
:10418000C5090000974000204E400020FCE5FF1FBD
:10419000A090044096400020884000209D2102000D
:1041A0000AD5F446524200F007F80122D207104324
:1041B000604700009D2102000AD002D4491E9218D7
:1041C000FCD5C905100A1206524100D3012A484104
:1041D00070470122D20703004B402ED4431A01D26C
:1041E000C01AC91830B44B180418240E1B0E22D064
:1041F000FF2C20D0E31A182B1DDC09021143C40D3B
:10420000641E0002104394461925ED1A0A00AA40C4
:10421000D940451801D36D08A41CE405D209280A29
:104220002D062A436546AA41604103181B0EFF2B49
:1042300001D3C00DC00530BC7047514006E051406D
:10424000CCE70122D20703004B40F8D4431A03D233
:10425000C01AC9185040514030B44B1809021143DC
:104260000418240E1B0E40D0FF2C3AD025009D418F
:104270000BD31ED8C50D4002401A0BD3ED0501002B
:10428000400AC90591416841D5E7C50D400249186A
:10429000401AD0D001214008491C0018FCD58C429E
:1042A00004D36D1A000AED054019C4E7E805104073
:1042B000C1E7182DBFDCAC1C0D00E140E5414D40CD
:1042C000012D4941C40D00021043451A01D46D1956
:1042D0009543641EE405280A2D069541604130BCD3
:1042E0007047FF2BA7D1D843A5E72442A3D10020D4
:1042F000A1E730B405004D400122D20715404B180C
:104300000418240E28D01B0E2FD0FF2C34D0FF2BE6
:1043100037D0E41A00020902104311434308480849
:10432000D10D1B1A02D2641EDB181B18DB18834246
:1043300000D31B1A4941F9D37F3426DDFE2C08DA5D
:10434000E4054808C907194391416041284330BC3E
:104350007047FF20C005F9E728001B0E03D0FF2B94
:10436000F5D14902F3D0D043F1E7FF2C01D140024F
:10437000F9D1FF20C005E9E74002F4D1FF2BF8D1C5
:10438000F1E728004902E2D0EDE70B0200202442C9
:10439000DCD15B129B1CD9D9D805D7E701221206C4
:1043A0000118CA420AD28A420DD8382212060909D7
:1043B0008918C20FD20711434007704700D049083F
:1043C0000909014301E0C10FC90700207047F0B49B
:1043D0000125ED070F005F404FD48B4200D1824290
:1043E00005D98446100062468C4619006346DF18E2
:1043F0004C18640D7F0D3AD0661C760537D0E61B4D
:10440000352E34DCDB022B43DB0A0C0DC9022943B9
:10441000C912202E0DDB1700203E06D01F00F741E9
:10442000F3405F400026012A7741C01871410DD248
:1044300017E01700F741F2405740F3415A40B340AC
:10444000F3405A400026801859410AD3A21C520555
:104450000FD0C207012F724117004008CB07184345
:104460004908641C24054208AF4170416141F0BC19
:104470007047641C21050020F9E76B4010E06B4099
:10448000ABE7F742F3D1E943F1E72442EFD1002053
:104490000021ECE7F0B40125ED070F005F40EED4FA
:1044A0000C00871A9C4105D2C01BA141D21963415F
:1044B00069406B40AE0ADF184C18F442E1D2640D3B
:1044C0007F0DE2D0E61B362ED1DCDB022B43DB0A6C
:1044D000A4460C0DC9022943C90A012E28DC04D1C7
:1044E000D6075208DF073A435B08EF0A764290414D
:1044F000994114D039423BD1B61940414941761C0B
:10450000394204D1761C001849413942FAD0B943E6
:104510006746B74208D9A41B24052143A7E70042F8
:10452000EAD13642E8D1A2E7E40AE10700209EE79B
:10453000202E0BDD203E1F00F340F7415F40012A93
:10454000002257417E42984191410BE01700F7410C
:10455000F2405740F3415A40B340F3405A407E4244
:10456000904199410A0303D2641EB6194041494162
:104570000027641E24054208AE4178416141F0BC29
:104580007047012252054B18DA4201D9581570477D
:104590005B0D0722D2019B1A10D9FF2B1DD2DB0520
:1045A0000122D2070A4013430903020D1143490AAD
:1045B000C200524100D9491CC81870470AD1800A6C
:1045C0000A0302435212921C04D9D3070B40D005B0
:1045D00018437047C80FC0077047C80F0002FF306C
:1045E000C00570470CB4012212060318DA4207D83E
:1045F0004B18DA4204D802000A43921802D28142D0
:104600000CBC7047FCD088420CBC70470CB4012233
:1046100012060318DA4207D84B18DA4204D802000F
:104620000A43921802D288420CBC7047FCD08142E7
:10463000FAE738B4012100220368001D002B0BD0DB
:104640000468001D0C4202D04D466D1E64192260A4
:10465000241D1B1FF0D0FAE732BC7047010009D5BA
:10466000F446404200F006F80122D20711436047A9
:10467000010000BF42221201D21E004207D002D424
:10468000521E0018FCD5C10A400512058918704752
:10469000F0B50E005E400125ED072E40B446AE0A8F
:1046A000DF184C18F44208D2F7420ED2640D01D044
:1046B0007F0D12D100206146F0BD05D1F74201D82F
:1046C0007F0D05D10020C143F0BDFBD1640DF9D0B1
:1046D0000020C143490549088FE0E419C902DB0203
:1046E00029432B43DB0A460DC00231438E4630B4CA
:1046F00087B295B27D432E0CADB2140C7C43A41945
:10470000260C240425439CB27C43A419190C79433C
:10471000270CC919A4B20F043C43090C000C97B232
:1047200047432E0CBE193543ADB2170C4743360C28
:10473000BF19A6B2BF193E043543240C3E0C3619EE
:104740009FB24743BF19BCB23E0C89191F0C4743A7
:104750007F183E043443390C704680B297B2474309
:104760002E0CBE193543ADB2170C4743360CBF199A
:10477000A6B2BF193E043543240C3E0C36199FB235
:104780004743BF19BCB23E0C89191F0C47437F1821
:104790003E043443390C77463F0C90B278432E0CDC
:1047A00080190604ADB22E43050CA0B22D18120CD0
:1047B0007A435019020C80B2240CA4189AB27A439E
:1047C000121914042043120C89181B0C7B43C918BE
:1047D00030BCEF0A394203D1B61940414941641E49
:1047E0006F12BF0DE41B0BDBFF19BC4211DA24056D
:1047F00000274208AE417841614166463143F0BD31
:10480000641C05D1401C6141CF0201D34908F4E783
:1048100050E75DE730B4012464054D00EC420BD84D
:104820005D00EC4208D80C001C43640004431443B0
:1048300004D28B4200D1824230BC7047FCD09942F6
:10484000FAD19042F8E70001F4464A1805D200F088
:104850000FF801D580174008604700F009F80121E2
:10486000C907884200D90800404260474A1812D25E
:10487000400DC90208430121C9070843520D4021D8
:104880000901521A521C06D452421F3201D4D040A0
:104890007047C01770470020704730B4012464058A
:1048A0004D00EC420BD85D00EC4208D80C001C43D4
:1048B00064000443144304D2994200D1904230BCB6
:1048C0007047FCD08B42FAD18242F8E730B4050041
:1048D0004D400122D20715404B180418240E30D049
:1048E0001B0E34D0FF2C36D0FF2B3CD0E418000236
:1048F000090210431143000A090A9446C2B24A430E
:10490000000AC3B24B43000A4843110A5B18190A54
:1049100012061B0C1A43120A091801D44918641E06
:10492000080A7F3C23DBFE2C08DAE4050906114364
:10493000634699416041284330BC7047FF20C00561
:10494000F9E728001B0EFF2BF6D1D043F4E728002F
:10495000FF2CF1D1F9E74002F7D1FF2B01D1490239
:10496000F3D1E005E7E7D8054902E4D0EDE74302DB
:104970000020641CDFD15B129B1CDCD9D805DAE770
:104980000122D2070118090E7F3910D449421F3184
:104990000FD4001805D2C0011043C84000D5D04341
:1049A0007047C0011043C84005D440427047002002
:1049B00070470042F3D510007047F0B40E005E401F
:1049C0000125ED072E40B446AE0ADF184C18F4421C
:1049D0003BD2F74241D2640D43D07F0D38D0E41B67
:1049E000C902DB0229432B43CF0ADB0A0600B61AB1
:1049F0009F4104D2641EB6197F41B6185F41681208
:104A0000800D24180018844222DAE80C0021B6191F
:104A10007F41B61A9F4102D2B6185F413F1C404108
:104A20004941F4D3241C21DD2405B6197F41B61A6F
:104A30009F4105D33743C60737430026012F7041F6
:104A4000614166463143F0BC7047FCD1F74205D264
:104A50000020C14349054908F3E704D00020C143C1
:104A6000F1E77F0DFAD000206146ECE72442FAD14D
:104A7000401C61410F03F6D30020E2E770470000BD
:104A800010B4254A126880239B000400E4B2640934
:104A9000A3401343204A1360C0B2C206D20E0423BF
:104AA0005A43C0B203005B11042463431B4CE35818
:104AB000995010BC704710B4174A126880239B00AD
:104AC0000400E4B26409A3401343134A13600A00CC
:104AD000134911400A00C0B2C106C90E042359434C
:104AE000C0B203005B11042463430C4CE3585B58D1
:104AF000E021C90019401143C0B2C206D20E0423FE
:104B00005A43C0B203005B1104246343034CE358CF
:104B1000995010BC70470000388004400CE8FF1F1B
:104B2000FFF8FFFF10B5040064B2092C0DDA002273
:104B3000002164B21648005D00F01CFF032164B23E
:104B40001348005DFFF7B7FF14E0092004002000C0
:104B5000441E40B200280DD00022002164B20C484F
:104B6000005D00F007FF032164B20948005DFFF714
:104B7000A2FFECE710BD10B5040064B20448005D6C
:104B800000F07FFF002801D1002000E0012010BDCF
:104B9000ECE5FF1F10B50400002C16D08020400467
:104BA000844203D329210F4801F022FD00200E4941
:104BB00008600E48046000200D49086005200A497D
:104BC000086009480068C003FBD510BD10B504009B
:104BD0002000441E002804D006480068FFF7DAFFD2
:104BE000F6E710BD0488000010E000E014E000E0EB
:104BF00018E000E0E03F00200121C206D20E914003
:104C0000974A116070470121C206D20E9140954A21
:104C10001160704770B440B210244443924D2C1977
:104C2000A568802464042C4340B2102545438E4E71
:104C30007519AC601C02240A40B2102545438A4E07
:104C40007519AC6040B210244443874D295140B2DD
:104C500010244443844D2C196260844C24788025B0
:104C60002543824C257040B2102444437E4D2C19BC
:104C7000E5688024E4052C4340B2102545437A4E74
:104C80007519EC6070BC704710B50400784804607A
:104C900000F08BF80028FBD000F002F8002010BDD7
:104CA00000B583B0962000010190012000900723F9
:104CB0006F4802686F49002001F0C4FC6B4800781F
:104CC0004006400E694908706B4800684000400883
:104CD000694908600020FFF78FFF1E20FFF793FF50
:104CE00066490720FFF7CCFE65490220FFF7C8FEA2
:104CF00007BD80B5634800214056042818D1032021
:104D0000604908701E20FFF77EFF96231B0158485C
:104D1000026858490020FFF77DFF5748006880214E
:104D200009060143544801600020FFF765FF05E0D4
:104D30001E20FFF768FF02205249087001BD80B5B0
:104D40004D480068400040084B4908600020FFF7CC
:104D500053FF01204B4908704B48006880214904EB
:104D600001434948016001BD80B5042045490870F0
:104D70000020C043454908601E20FFF73DFF414821
:104D80000021405601280FD03E48002140560228FD
:104D9000F5D104203B4908700020C0433B4908601E
:104DA0001E20FFF729FFEAE701BD10B582B00024FD
:104DB00000206946087001F03BFD8021122001F0BF
:104DC000B5FE002804D1324801F042FF002046E041
:104DD0003220FFF7FBFE0B220121684601F0DEFEC8
:104DE000002804D12B4801F033FF002037E068464B
:104DF0000178294801F02CFF28480178284801F063
:104E000027FF68460078212828D100200400234885
:104E10000078A4B280B284421BD2A4B202206043C4
:104E2000204908184178A4B2022060431D4A105C52
:104E300080B201F07BFE002809D1A4B202206043B9
:104E40001849095C184801F003FF002007E0641CC2
:104E5000DDE7164801F0FCFE012000E0002016BD51
:104E600000E100E080E100E000810040001002402D
:104E7000B03F002012F10F400C8100400201010000
:104E80001201090038E8FF1F08810040A09004408B
:104E9000288B0000988B0000688A0000A0E8FF1FA4
:104EA000C08A00003CE8FF1F408B00008C8A000095
:104EB00038B5040064B225006D11EDB2002D11D19A
:104EC00073480068802109050143714801607148F9
:104ED0000068902188436F4908606E4800686D49FA
:104EE000086003E030216C4801F082FB64B22000CE
:104EF000002823D0401E26D0401E29D0401E2CD092
:104F0000401E2FD0401E32D0401E35D0401E38D01B
:104F1000401E3BD0401E3ED0801E41D0401E44D09B
:104F2000401E47D0401E4AD0401E4DD0083850D0B9
:104F3000C01E53D0C01E012850D950E0002194203B
:104F4000FFF79EFD4FE000219020FFF799FD4AE01A
:104F500000219220FFF794FD45E000219620FFF705
:104F60008FFD40E000219520FFF78AFD3BE0002106
:104F70009120FFF785FD36E000219320FFF780FDAB
:104F800031E000219720FFF77BFD2CE0002120205D
:104F9000FFF776FD27E000212120FFF771FD22E0D9
:104FA00000214220FFF76CFD1DE000212220FFF7C9
:104FB00067FD18E000212320FFF762FD13E00021C8
:104FC0004020FFF75DFD0EE000214120FFF758FD76
:104FD00009E000219E20FFF753FD04E003E06D216E
:104FE0002D4801F005FB31BDF8B504000F0064B297
:104FF000260076110025390049B2200040B200F0A9
:1050000020F876B20420704324490858006800064E
:10501000F7D576B20420704320490858006905008E
:1050200076B2042070431D490858006880218843E7
:1050300076B204217143194A51580860280080B2A1
:10504000F2BD70B440B202005211C306DB0E49B289
:105050008C000C25254050242C4352B20425554386
:105060000E4E7559AC60042452B2042555430B4EC4
:105070007559EC60DBB2DD06ED0E40242C4352B2D4
:1050800004255543054E75592C6070BC70470000CF
:105090003C800440188004404C88000000E6FF1F5C
:1050A0007CB506000D001400664801685848006889
:1050B000FFF70CFCFFF764FC5649088059480021B3
:1050C000405EFFF76BF801005E480068FFF7B9F833
:1050D0005D4908604F480021405EFFF7BFFA00902D
:1050E0000191594801684C480068FFF7EFFBFFF752
:1050F00055F94AA20CCAFFF7CBFA009A019BFFF7B9
:1051000066F9FFF73EFA4D4908604E480068FFF720
:1051100037FC4449088045480021405600284ED0BD
:105120004348007804284AD142480078022846DAE9
:105130003E4800214056012819D13F480268783284
:105140000021012000F0D2FF00203949087006201C
:1051500035490880354800214056002801D10120FA
:1051600000E00020C0B2F020FFF730FD1FE02F4824
:10517000002140560021C943884218D12E480268B8
:10518000783A0021012000F0B1FF00202849087082
:10519000062025490880254800214056002801D1D5
:1051A000012000E00020C0B2F020FFF70FFD00203A
:1051B0001F4908701F480078401C1E4908701E488F
:1051C0000068FEF7F7FF1D490968FFF73AF801F09C
:1051D00051FD1B4908601A4802680021012000F0B7
:1051E00085FF18480068FFF7D9F80090019116482C
:1051F0000068FFF7D3F8C1A20CCAFFF749FA009A7A
:10520000019BFFF7E4F8FFF71FFB00B276BD00003B
:10521000E8E8FF1F64400020E4E8FF1F3333333326
:105220003333F33F62400020544000208740002089
:10523000A83F00209A400020A03F0020BC3F002053
:10524000B43F0020943F0020B83F0020F8B500266E
:10525000002500249B4801689B480068FFF736FB47
:10526000FFF78EFB9949088099480021405EFEF7C0
:1052700095FF010093480068FEF7E3FF9549086039
:1052800092480021405EFEF789FF01000F0091481F
:10529000016891480068FFF719FB3900FEF799FF94
:1052A0008E49086087480068FFF76AFB88490880D4
:1052B0008B480021405EBF2807DB9B2006009B2017
:1052C0000500D2204000040054E085480021405EE3
:1052D000562807DB912006009B200500D2204000C5
:1052E000040047E07E480021405E512807DB87200C
:1052F0000600AA200500D220400004003AE07848C9
:105300000021405E472807DB7D200600872005003E
:10531000D220400004002DE071480021405E3D286D
:1053200007DB7D20060087200500D2204000040016
:1053300020E06B480021405E332807DB6420060034
:1053400078200500D2204000040013E064480021CA
:10535000405E292807DB6420060078200500BE2077
:105360004000040006E06420060078200500BE200E
:10537000400004005B480021405600283BD05A48BA
:105380000078052803D058480078062833D15648BD
:105390000078052814D1554800682DB24219002123
:1053A000012000F0A3FE24B22000FFF70FFC1D2017
:1053B000C0434F49088039210020FEF7E5FB17E084
:1053C00049480078062813D14848006836B2821B45
:1053D0000021012000F08AFE24B22000FFF7F6FB36
:1053E0001D20C0434249088039210020FEF7CCFB34
:1053F00000203D4908703F480021405600284ED00B
:105400003948007804284AD13B480078022846DA17
:10541000384800214056012819D1344802687832B2
:105420000021012000F062FE00202F4908700620B4
:105430002F4908802F4800214056002801D1012023
:1054400000E00020C0B2F020FFF7C0FB1FE02948B9
:10545000002140560021C943884218D123480268E0
:10546000783A0021012000F041FE00201E4908701A
:1054700006201F4908801F4800214056002801D1FE
:10548000012000E00020C0B2F020FFF79FFB0020C9
:105490001549087018480078401C174908701348CF
:1054A0000068FEF787FE0D490968FEF7CAFE01F0A5
:1054B000E1FB9C4908609B4802680021012000F044
:1054C00015FEF1BD943F0020FCE8FF1F684000205E
:1054D00066400020B83F0020F8E8FF1FBC3F0020D6
:1054E0004E40002088400020A83F0020A03F002020
:1054F00054400020874000209A4000209A999999B2
:105500009999014038B505000C00280086490880AB
:1055100086484068854988608448006883494860B7
:1055200081480021405E001BFEF738FE7F4908607D
:105530007E4800687D494968FEF783FE7C4909681A
:10554000FFF7C4F97B4908607B4801687748006829
:10555000FFF7BCF979490860744841688020C005AC
:10556000FFF7B4F9010071480068FEF76AFE6F4961
:105570008968FEF72EFE72490968FFF7A7F971499D
:1055800008606A484068FEF709FF490049080022A0
:105590006D4BFFF782F910D26648016867480068D2
:1055A000FEF717FE67490968FEF713FEBF49096851
:1055B000FEF70FFEBD49086007E05E480168BB4882
:1055C0000068FEF706FEB9490860B8480068AE49B1
:1055D000FFF708F802D8AD48B4490860B34800683E
:1055E000AB49FFF713F802D2A948B0490860A948AF
:1055F000007827287BDAA8480078012831D10020DC
:10560000A6490880A6480078002810D00022002172
:10561000002000F06BFDFA22D2000121002000F0F2
:1056200065FD9F480078401E9D49087019E0A0481C
:105630000021405E0A280ADB00220021002000F041
:1056400055FD984A0121002000F050FD09E000229C
:105650000021002000F04AFD00220121002000F07E
:1056600045FD91480021405600281BD08F48006816
:105670000021FEF7B7FF0AD800220021002000F029
:1056800035FD00220121002000F030FD48E000221D
:105690000021002000F02AFD00220121002000F05E
:1056A00025FD3DE0814800680021FEF79BFF0FD8F3
:1056B0007E480068FFF764F900B202000021002074
:1056C00000F014FD00220121002000F00FFD27E072
:1056D00000220021002000F009FD7448006801F05C
:1056E000C9FA02000121002000F000FD18E0704816
:1056F0000021405E0A2809DB00220021002000F082
:10570000F5FC724A0121002000F0F0FC002200218B
:10571000002000F0EBFC00220121002000F0E6FC5C
:1057200031BD0000B43F00206A400020C03F00208F
:10573000ECE8FF1FCC3F0020F0E8FF1FD03F002027
:10574000F4E8FF1FD43F002000C05C40F0B589B0F2
:10575000040058480021465E5748694602884A833B
:1057600028254620694608836927002069468883E2
:10577000ADB2AC4202DA5148068049E06846008B7F
:10578000844241DA36B23000FEF768FF049005919A
:1057900036B206980014301AFEF760FF002280230C
:1057A000DB05FEF775FF029003912000FEF756FF20
:1057B0004900490800900191ADB22800FEF758FF5A
:1057C00002000B0000980199FEF764FE029A039B09
:1057D000FEF75EFF009001916846008BADB2401B62
:1057E000401CFEF73BFF02000B0000980199FFF7F9
:1057F000E4F802000B0004980599FEF74BFEFFF752
:1058000023F82E49088003E0069800142B490880ED
:10581000BFB2A74227DA29480021405EFEF71EFFEB
:1058200002900391BFB2E01BFEF718FF0022244B49
:10583000FFF7C3F823A20CCAFEF72AFF00900191DC
:105840001E480021405EFEF709FF009A019BFEF70B
:105850001FFF02000B0002980399FEF71BFEFEF7E4
:10586000F3FF1649088015480021405E212802DA1E
:1058700021201249088011480088154909884018DC
:1058800000B209B0F0BD00000100FA450000FA4581
:105890000000FAC57C40002082400020FCE5FF1F8C
:1058A000A1E8FF1FDC05000088400020D83F002051
:1058B0004E4000203C4000203E4000206C40002034
:1058C00000C07240CDCCCCCCCCCCEC3F94110000CD
:1058D0005440002010B5040064B2042C07DA012201
:1058E000012164B20E48005D00F044F80EE004208F
:1058F00004002000441E40B2002807D001220121EC
:1059000064B20748005D00F035F8F2E710BD10B54D
:10591000040064B20248005D00F093F810BD00007E
:10592000F8E5FF1F10B50400200080218900FDF775
:105930001FFF002903D01E210B4800F059FE0B4821
:10594000046010BD38B504000D000848006808491F
:10595000884203D03021044800F04AFE64B204209B
:10596000604303490D5031BDA089000008ED00E0FF
:1059700000E0FF1F70B504000D0016006DB2002D91
:1059800015D1E4B220004011042148434E49085883
:10599000E4B221004911042251434B4A515849694C
:1059A0000122E306DB0E9A409143416142E0E4B2FA
:1059B000200040110421484343490858E4B2210023
:1059C000491104225143404A515849690122E306D2
:1059D000DB0E9A400A434261F6B2002E15D1E4B2C2
:1059E000200040110421484337490858006801212C
:1059F000E206D20E91408843E4B22100491104220C
:105A00005143314A5158086014E0E4B2200040117B
:105A1000042148432C49085801680120E206D20EAF
:105A200090400843E4B22100491104225143264A20
:105A300051580860802149002000C0B2FFF720F8CB
:105A400070BD10B50400E4B22000401104214843A9
:105A50001D4908584069E106C90EC840C00703D473
:105A600081211A4800F0C4FDE4B220004011042155
:105A70004843154908580121E206D20E9140C16001
:105A800010BD10B50400E4B22000401104214843C9
:105A90000D4908584069E106C90EC840C00703D542
:105AA00092210A4800F0A4FDE4B220004011042134
:105AB0004843054908580169E006C00EC140080086
:105AC000C007C00F10BD0000C0E7FF1FD488000052
:105AD00080B5002201214B20FFF74CFF002201215D
:105AE0004920FFF747FF002201214A20FFF742FF2C
:105AF000002201214820FFF73DFF0022012146201E
:105B0000FFF738FF01BD000000B50821614A926827
:105B1000126880235B0013435E4A926813605D4AFB
:105B2000926812685C4B13405A4A926813600A00EC
:105B3000511ED2B2002A27D0020609D5554A9268D2
:105B4000126880239B001343524A9268136007E057
:105B5000504A92681268514B13404E4A9268136043
:105B60004C4A9268126880231B011343494A926889
:105B7000136000BF474A92681268474B1340454A7A
:105B8000926813604000D2E700BD000000B5082114
:105B9000404A92681268424B13403E4A9268136032
:105BA0003C4A926812683C4B13403A4A9268136030
:105BB0000A00511ED2B2002A27D0020609D5354A62
:105BC0009268126880239B001343324A92681360E4
:105BD00007E0304A92681268304B13402D4A9268B1
:105BE00013602C4A9268126880231B011343294AD0
:105BF0009268136000BF274A92681268264B1340D0
:105C0000244A926813604000D2E700BD38B5050011
:105C10000C0020005038C0B2FFF7B8FF2900C9B20D
:105C2000090910200843C0B2FFF7B0FF2807000F92
:105C3000FFF7ACFF31BD70B5040000200500EDB2E8
:105C4000082D17DA28005038C0B2FFF79FFF002058
:105C5000FFF79CFF1020FFF799FF00200600F6B227
:105C6000822E05DA2000C0B2FFF74EFF761CF6E761
:105C70006D1CE4E770BD00B580B2002808D07B4AF7
:105C800011000A00511E92B2002AFAD1401EF3E719
:105C900000BD0000C0E7FF1FFFF7FFFFFFFDFFFF94
:105CA000FFFEFFFF10B504002020FFF76FFF20006C
:105CB000C0B2FFF76BFF10BD10B5040040202043B9
:105CC000C0B2FFF763FF10BD10B504008120FFF7DD
:105CD0005DFF2000C0B2FFF759FF10BD10B50400F2
:105CE0008D20FFF753FF10202043C0B2FFF74EFF77
:105CF00010BD10B50400A0202043C0B2FFF746FF3E
:105D000010BD10B50400A4202043C0B2FFF73EFF31
:105D100010BD10B50400A6202043C0B2FFF736FF27
:105D200010BD10B50400A820FFF730FF2000C0B25E
:105D3000FFF72CFF10BD10B50400AE202043C0B209
:105D4000FFF724FF10BD10B50400C0202043C0B2EF
:105D5000FFF71CFF10BD10B50400D320FFF716FF9E
:105D60002000C0B2FFF712FF10BD10B50400D5200F
:105D7000FFF70CFF2000C0B2FFF708FF10BD10B501
:105D80000400D920FFF702FF2000C0B2FFF7FEFE9B
:105D900010BD10B50400DA20FFF7F8FE0220204302
:105DA000C0B2FFF7F3FE10BD10B50400DB20FFF713
:105DB000EDFE2000C0B2FFF7E9FE10BD80B5FFF791
:105DC00087FE2B488068006880210901014328482C
:105DD00080680160264880680068264901402448A0
:105DE000806801603220FFF746FF21488068006824
:105DF0008021C90001431E48806801600020FFF730
:105E00009AFF8020FFF7B1FF3F20FFF78AFF0020B5
:105E1000FFF7A1FF0020FFF74FFF0420FFF75EFF11
:105E20000220FFF73FFF0120FFF763FF0820FFF785
:105E30008AFF1020FFF7ADFFCF20FFF745FFF120CD
:105E4000FFF79DFF4020FFF7AFFF0020FFF759FF4E
:105E50000020FFF75EFF0120FFF76DFF0020FFF736
:105E6000EAFE00210020FFF7D1FE01BD131A000059
:105E7000C0E7FF1FFFFBFFFF38B504000D0064B251
:105E8000002C03D0022C55D039D36EE09648006820
